{
  "contractName": "MetaCoin",
  "abi": [
    {
      "inputs": [],
      "payable": false,
      "stateMutability": "nonpayable",
      "type": "constructor",
      "signature": "constructor"
    },
    {
      "anonymous": false,
      "inputs": [
        {
          "indexed": true,
          "name": "_from",
          "type": "address"
        },
        {
          "indexed": true,
          "name": "_to",
          "type": "address"
        },
        {
          "indexed": false,
          "name": "_value",
          "type": "uint256"
        }
      ],
      "name": "Transfer",
      "type": "event",
      "signature": "0xddf252ad1be2c89b69c2b068fc378daa952ba7f163c4a11628f55a4df523b3ef"
    },
    {
      "constant": false,
      "inputs": [
        {
          "name": "_neederAddress",
          "type": "address"
        },
        {
          "name": "_goal",
          "type": "uint256"
        }
      ],
      "name": "newNeeder",
      "outputs": [
        {
          "name": "",
          "type": "bool"
        }
      ],
      "payable": false,
      "stateMutability": "nonpayable",
      "type": "function",
      "signature": "0xfa8af2b3"
    },
    {
      "constant": false,
      "inputs": [
        {
          "name": "receiver",
          "type": "address"
        },
        {
          "name": "amount",
          "type": "uint256"
        }
      ],
      "name": "sendCoin",
      "outputs": [
        {
          "name": "sufficient",
          "type": "bool"
        }
      ],
      "payable": false,
      "stateMutability": "nonpayable",
      "type": "function",
      "signature": "0x90b98a11"
    },
    {
      "constant": true,
      "inputs": [
        {
          "name": "addr",
          "type": "address"
        }
      ],
      "name": "getBalanceInEth",
      "outputs": [
        {
          "name": "",
          "type": "uint256"
        }
      ],
      "payable": false,
      "stateMutability": "view",
      "type": "function",
      "signature": "0x7bd703e8"
    },
    {
      "constant": true,
      "inputs": [
        {
          "name": "addr",
          "type": "address"
        }
      ],
      "name": "getBalance",
      "outputs": [
        {
          "name": "",
          "type": "uint256"
        }
      ],
      "payable": false,
      "stateMutability": "view",
      "type": "function",
      "signature": "0xf8b2cb4f"
    },
    {
      "constant": true,
      "inputs": [
        {
          "name": "_neederAddress",
          "type": "address"
        }
      ],
      "name": "getGoal",
      "outputs": [
        {
          "name": "",
          "type": "uint256"
        }
      ],
      "payable": false,
      "stateMutability": "view",
      "type": "function",
      "signature": "0x9db48bbb"
    },
    {
      "constant": true,
      "inputs": [
        {
          "name": "_neederAddress",
          "type": "address"
        }
      ],
      "name": "getFunderAccount",
      "outputs": [
        {
          "name": "",
          "type": "uint256"
        }
      ],
      "payable": false,
      "stateMutability": "view",
      "type": "function",
      "signature": "0x2fb29286"
    },
    {
      "constant": true,
      "inputs": [
        {
          "name": "_neederAddress",
          "type": "address"
        }
      ],
      "name": "getAmount",
      "outputs": [
        {
          "name": "",
          "type": "uint256"
        }
      ],
      "payable": false,
      "stateMutability": "view",
      "type": "function",
      "signature": "0xf5a79767"
    },
    {
      "constant": true,
      "inputs": [
        {
          "name": "_neederAddress",
          "type": "address"
        }
      ],
      "name": "getIsComplete",
      "outputs": [
        {
          "name": "",
          "type": "bool"
        }
      ],
      "payable": false,
      "stateMutability": "view",
      "type": "function",
      "signature": "0x3e532a0a"
    },
    {
      "constant": true,
      "inputs": [],
      "name": "getNeederAmount",
      "outputs": [
        {
          "name": "",
          "type": "uint256"
        }
      ],
      "payable": false,
      "stateMutability": "view",
      "type": "function",
      "signature": "0x7b64553f"
    }
  ],
  "bytecode": "0x608060405234801561001057600080fd5b50612710600160003273ffffffffffffffffffffffffffffffffffffffff1673ffffffffffffffffffffffffffffffffffffffff16815260200190815260200160002081905550610a19806100666000396000f3fe608060405260043610610099576000357c0100000000000000000000000000000000000000000000000000000000900463ffffffff1680632fb292861461009e5780633e532a0a146101035780637b64553f1461016c5780637bd703e81461019757806390b98a11146101fc5780639db48bbb1461026f578063f5a79767146102d4578063f8b2cb4f14610339578063fa8af2b31461039e575b600080fd5b3480156100aa57600080fd5b506100ed600480360360208110156100c157600080fd5b81019080803573ffffffffffffffffffffffffffffffffffffffff169060200190929190505050610411565b6040518082815260200191505060405180910390f35b34801561010f57600080fd5b506101526004803603602081101561012657600080fd5b81019080803573ffffffffffffffffffffffffffffffffffffffff16906020019092919050505061045d565b604051808215151515815260200191505060405180910390f35b34801561017857600080fd5b506101816104b6565b6040518082815260200191505060405180910390f35b3480156101a357600080fd5b506101e6600480360360208110156101ba57600080fd5b81019080803573ffffffffffffffffffffffffffffffffffffffff1690602001909291905050506104bf565b6040518082815260200191505060405180910390f35b34801561020857600080fd5b506102556004803603604081101561021f57600080fd5b81019080803573ffffffffffffffffffffffffffffffffffffffff1690602001909291908035906020019092919050505061057f565b604051808215151515815260200191505060405180910390f35b34801561027b57600080fd5b506102be6004803603602081101561029257600080fd5b81019080803573ffffffffffffffffffffffffffffffffffffffff1690602001909291905050506107e5565b6040518082815260200191505060405180910390f35b3480156102e057600080fd5b50610323600480360360208110156102f757600080fd5b81019080803573ffffffffffffffffffffffffffffffffffffffff169060200190929190505050610831565b6040518082815260200191505060405180910390f35b34801561034557600080fd5b506103886004803603602081101561035c57600080fd5b81019080803573ffffffffffffffffffffffffffffffffffffffff16906020019092919050505061087d565b6040518082815260200191505060405180910390f35b3480156103aa57600080fd5b506103f7600480360360408110156103c157600080fd5b81019080803573ffffffffffffffffffffffffffffffffffffffff169060200190929190803590602001909291905050506108c6565b604051808215151515815260200191505060405180910390f35b6000600260008373ffffffffffffffffffffffffffffffffffffffff1673ffffffffffffffffffffffffffffffffffffffff168152602001908152602001600020600301549050919050565b6000600260008373ffffffffffffffffffffffffffffffffffffffff1673ffffffffffffffffffffffffffffffffffffffff16815260200190815260200160002060040160009054906101000a900460ff169050919050565b60008054905090565b600073__ConvertLib____________________________6396e4ee3d6104e48461087d565b60026040518363ffffffff167c0100000000000000000000000000000000000000000000000000000000028152600401808381526020018281526020019250505060206040518083038186803b15801561053d57600080fd5b505af4158015610551573d6000803e3d6000fd5b505050506040513d602081101561056757600080fd5b81019080805190602001909291905050509050919050565b600080600260008573ffffffffffffffffffffffffffffffffffffffff1673ffffffffffffffffffffffffffffffffffffffff1681526020019081526020016000209050600015158160040160009054906101000a900460ff1615151415156105ec5760009150506107df565b82600160003373ffffffffffffffffffffffffffffffffffffffff1673ffffffffffffffffffffffffffffffffffffffff16815260200190815260200160002054101561063d5760009150506107df565b82600160003373ffffffffffffffffffffffffffffffffffffffff1673ffffffffffffffffffffffffffffffffffffffff1681526020019081526020016000206000828254039250508190555082600160008360000160009054906101000a900473ffffffffffffffffffffffffffffffffffffffff1673ffffffffffffffffffffffffffffffffffffffff1673ffffffffffffffffffffffffffffffffffffffff168152602001908152602001600020600082825401925050819055508281600201600082825401925050819055508060030160008154809291906001019190505550806001015481600201541015156107505760018160040160006101000a81548160ff0219169083151502179055505b8060000160009054906101000a900473ffffffffffffffffffffffffffffffffffffffff1673ffffffffffffffffffffffffffffffffffffffff163373ffffffffffffffffffffffffffffffffffffffff167fddf252ad1be2c89b69c2b068fc378daa952ba7f163c4a11628f55a4df523b3ef856040518082815260200191505060405180910390a360019150505b92915050565b6000600260008373ffffffffffffffffffffffffffffffffffffffff1673ffffffffffffffffffffffffffffffffffffffff168152602001908152602001600020600101549050919050565b6000600260008373ffffffffffffffffffffffffffffffffffffffff1673ffffffffffffffffffffffffffffffffffffffff168152602001908152602001600020600201549050919050565b6000600160008373ffffffffffffffffffffffffffffffffffffffff1673ffffffffffffffffffffffffffffffffffffffff168152602001908152602001600020549050919050565b6000806000815480929190600101919050555060a0604051908101604052808473ffffffffffffffffffffffffffffffffffffffff168152602001838152602001600081526020016000815260200160001515815250600260008573ffffffffffffffffffffffffffffffffffffffff1673ffffffffffffffffffffffffffffffffffffffff16815260200190815260200160002060008201518160000160006101000a81548173ffffffffffffffffffffffffffffffffffffffff021916908373ffffffffffffffffffffffffffffffffffffffff16021790555060208201518160010155604082015181600201556060820151816003015560808201518160040160006101000a81548160ff021916908315150217905550905050600190509291505056fea165627a7a72305820445bd3c18433b7c098597445c5e280ae58d7af2d99709405cc3354fb1881e0ba0029",
  "source": "pragma solidity ^0.5.0;\nimport \"./ConvertLib.sol\";\n\n// This is just a simple example of a coin-like contract.\n// It is not standards compatible and cannot be expected to talk to other\n// coin/token contracts. If you want to create a standards-compliant\n// token, see: https://github.com/ConsenSys/Tokens. Cheers!\n\ncontract MetaCoin {\n    \n    struct needer{\n        address neederAddress;\n        uint goal;\n        uint amount;\n        uint funderAccount;\n        bool isCompelete;\n    }\n\n\tuint neederAmount;\n\n\tmapping (address => uint) balances;\n\tmapping(address => needer) needmap;\n\n\n\tevent Transfer(address indexed _from, address indexed _to, uint256 _value);\n\n\tconstructor() public {\n\t\tbalances[tx.origin] = 10000;\n\t}\n\n\tfunction newNeeder(address _neederAddress,uint _goal) public returns(bool){\n\t\tneederAmount++;\n\t\tneedmap[_neederAddress] = needer(_neederAddress,_goal,0,0,false);\n\t\treturn true;\n\t}\n\n\tfunction sendCoin(address receiver, uint amount) public returns(bool sufficient) {\n\t\tneeder storage _needer = needmap[receiver];\n\t\tif(_needer.isCompelete != false){\n\t\t\treturn false;\n\t\t}\n\t\tif (balances[msg.sender] < amount)\n\t\t{\n\t\t\treturn false;\n\t\t}\n\t\tbalances[msg.sender] -= amount;\n\t\tbalances[_needer.neederAddress] += amount;\n\n\t\t_needer.amount += amount;\n\t\t_needer.funderAccount++;\n\n\t\tif(_needer.amount >= _needer.goal){\n\t\t\t_needer.isCompelete = true;\n\t\t}\n\t\temit Transfer(msg.sender, _needer.neederAddress, amount);\n\t\treturn true;\n\t}\n\n\tfunction getBalanceInEth(address addr) public view returns(uint){\n\t\treturn ConvertLib.convert(getBalance(addr),2);\n\t}\n\n\tfunction getBalance(address addr) public view returns(uint) {\n\t\treturn balances[addr];\n\t}\n\n\tfunction getGoal(address _neederAddress) public view returns(uint){\n\t\treturn needmap[_neederAddress].goal;\n\t}\n\n\tfunction getFunderAccount(address _neederAddress) public view returns(uint) {\n\t\treturn needmap[_neederAddress].funderAccount;\n\t}\n\n\tfunction getAmount(address _neederAddress) public view returns(uint) {\n\t\treturn needmap[_neederAddress].amount;\n\t}\n\n\tfunction getIsComplete(address _neederAddress) public view returns(bool) {\n\t\treturn needmap[_neederAddress].isCompelete;\n\t}\n\n\tfunction getNeederAmount() public view returns(uint){\n\t\treturn neederAmount;\n\t}\n}\n",
  "sourcePath": "E:/t/contracts/MetaCoin.sol",
  "compiler": {
    "name": "solc",
    "version": "0.5.0+commit.1d4f565a.Emscripten.clang"
  },
  "schemaVersion": "3.0.0",
  "updatedAt": "2018-12-23T15:35:30.423Z",
  "devdoc": {
    "methods": {}
  },
  "userdoc": {
    "methods": {}
  }
}